#BPA#2011110001080000061495CEDIC (HOSPITAL SANTO INACIO )37662241341934000174SECRETARIA MUNICIPAL DE SAUDE           MVER1.0.7  
376622520111110087149068000322532020111104001010206020031               F230730    042000001  2011102800077BPAGERALDA MARIA GOMES DA SILVA  19690130I01    010
376622520111110087149068000322532020111104001020206010044               F230730    017000001  2011102800087BPADIANA CARLA SANTOS SOUZA      19940613I99    010
376622520111110087149068000322532020111104001030206020031               M230730    043000001  2011102800133BPAAUGUSTO LOPES DA SILVA        19680120I02    010
376622520111110087149068000322532020111104001040206020031               M230730    067000001  2011102800149BPAJOSE JOAQUIM DO NASCIMENTO    19440309I99    010
376622520111110087149068000322532020111107001050206010079               F230730    026000001  2011102800155BPAMARIA APARECIDA DA SILVA SANTO19850228I99    010
376622520111110087149068000322532020111107001060206010079               F230730    083000001  2011102800158BPAJOSEFA MACEDO FILHA           19280422I99    010
376622520111110087149068000322532020111107001070206010079               F230730    047000001  2011102800163BPAMARIA JOSE DE SOUSA VIEIRA    19640114I99    010
376622520111110087149068000322532020111107001080206010028               F230730    046000001  2011102800176BPAMARIA DO SOCORRO TENORIO LOPES19651130I99    010
376622520111110087149068000322532020111107001090206010079               F230730    040000001  2011102800267BPAFRANCISCA VIEIRA DE OLIVEIRA  19710611I99    010
376622520111110087149068000322532020111108001100206010010               M230730    025000001  2011102800279BPATHIAGO FEITOSA EPIFANIO - PSF 19861226I99    010
376622520111110087149068000322532020111108001110206030029               F230730    050000001  2011102800282BPAMARIA MARLUCIA DIAS DA SILVA  19610826I99    010
376622520111110087149068000322532020111108001120206010079               F230730    057000001  2011102800288BPAGERUZA LOPES DOS SANTOS       19540817I99    010
376622520111110087149068000322532020111108001130206010079               F230730    029000001  2011102800291BPAFRANCISCA SANTANA DE FIGUEIRED19830102I99    010
376622520111110087149068000322532020111108001140206010079               F230730    035000001  2011102800293BPAJOAQUINA LIMA DE FREITAS      19760711I04    010
376622520111110087149068000322532020111109001150206010079               M230730    083000001  2011102800299BPAJOSE AUDISIO SARAIVA E SILVA  19280613I01    010
376622520111110087149068000322532020111109001160206010079               M230730    059000001  2011102800301BPAJOSE XAVIER                   19520516I02    010
376622520111110087149068000322532020111109001170206010079               M230730    042000001  2011102800324BPAREGINALDO FRANCISCO DOS SANTOS19690313I99    010
376622520111110087149068000322532020111109001180206010079               F230730    067000001  2011102800339BPAFRANCISCA BELEM DE SALES      19440716I99    010
376622520111110087149068000322532020111109001190206010079               F230730    038000001  2011102800346BPAFRANCISCA ARAUJO RODRIGUES    19731219I04    010
376622520111110087149068000322532020111110001200206010028               M230730    043000001  2011102800350BPAEDINALDO COSME DE BRITO       19680611I99    010
376622520111110087149068000322532020111110002010206010079               M230730    053000001  2011102800352BPAMARIA SOCORRO SANTANA SILVA   19580119I99    010
376622520111110087149068000322532020111110002020206010079               F230730    075000001  2011102800356BPAFRANCISCA DOS SANTOS SILVA    19370101I99    010
376622520111110087149068000322532020111110002030206010079               M230730    047000001  2011102800360BPAJOSE BIRO SOBRINHO            19640818I99    010
376622520111110087149068000322532020111110002040206010079               F230730    071000001  2011102800363BPAMARIA JOSE DO NASCIMENTO      19400407I99    010
376622520111110087149068000322532020111111002050206030010               M230730    062000001  2011102800367BPACICERO DE BRITO               19490301I99    010
376622520111110087149068000322532020111111002060206030037               M230730    062000001  2011102800368BPACICERO DE BRITO               19490301I99    010
376622520111110087149068000322532020111111002070206010079               M230730    014000001  2011102800381BPALUCAS LEE DOS SANTOS          19970815I02    010
376622520111110087149068000322532020111111002080206010079               M230730    027000001  2011102800384BPALUIZ ROBERIO DOS SANTOS SILVA 19841117I99    010
376622520111110087149068000322532020111108002090206030037               F230730    028000001  2011110301511BPAANA PATRICIA DOS SANTOS       19830816I99    010
376622520111110087149068000322532020111109002100206010044               M230730    030000001  2011110301518BPAMARCOS ANTONIO APOLINARIO DA S19810823I99    010
376622520111110087149068000322532020111122002110206010079898000148520482F230730    067000001  2011110301610BPAMARIA NILZA LEDO CORREIRA     19440526I99    010
376622520111110087149068000322532020111121002120206030037               F230730    034000001  2011110301923BPACICERA GERLANIA DA CONCEICAO  19771226I99    010
376622520111110087149068000322532020111121002130206020031               F230730    039000001  2011110301924BPAMARIA IVONETE MEDEIROS TORRES 19720212I99    010
376622520111110087149068000322532020111104002140206010079               M230730    051000001  2011110302290BPAJOAO FIRMINO DE FRANCA        19600125I04    010
376622520111110087149068000322532020111111002150206010079               F230730    057000001  2011110400135BPAJOSEFA PEREIRA MATIAS         19540525I04    010
376622520111110087149068000322532020111114002160206010079               F230730    024000001  2011110400665BPACICERA PATRICIA DOS SANTOS SIL19870207I99    010
376622520111110087149068000322532020111107002170206010079               F230730    025000001  2011110700043BPAPATRICIA GOMES DE ARAUJO      19860708I04    010
376622520111110087149068000322532020111110002180206010079               M230730    060000001  2011110700207BPAANTONIO COSTA FARIAS          19510411I99    010
376622520111110087149068000322532020111114002190206010044               F230730    034000001  2011110700411BPAMARIA DA PENHA AQUINO         19770709I99    010
376622520111110087149068000322532020111109002200206030037               F230730    065000001  2011110700519BPAFRANCISCA RODRIGUES DOS SANTOS19460527I04    010
376622520111110087149068000322532020111114003010206010079               M230730    046000001  2011110700899BPAFRANCISCO HELDO ROCHA         19651030I99    010
376622520111110087149068000322532020111114003020206010079               F230730    077000001  2011110700909BPATERCILIA GOMES VIEIRA         19340824I04    010
376622520111110087149068000322532020111114003030206010079               M230730    046000001  2011110700911BPAGENIVAL DE SOUZA              19650518I04    010
376622520111110087149068000322532020111117003040206010028               F230730    066000001  2011110700913BPAMARIA UMBELINA DE ARAUJO      19451105I99    010
376622520111110087149068000322532020111117003050206010052               F230730    055000001  2011110700918BPAMARIA SONIA BALBINO           19560518I02    010
376622520111110087149068000322532020111117003060206010079               F230730    027000001  2011110700920BPANATALIA DAS CHAGAS QUEIROS SIL19841102I01    010
376622520111110087149068000322532020111110003070206030010               F230730    053000001  2011110700926BPARAIMUNDA ALVES DA SILVA       19580915I99    010
376622520111110087149068000322532020111110003080206030037               F230730    053000001  2011110700927BPARAIMUNDA ALVES DA SILVA       19580915I99    010
376622520111110087149068000322532020111117003090206010044               M230730    046000001  2011110700934BPAJOSE NICODEMOS PEREIRA        19650312I01    010
376622520111110087149068000322532020111117003100206010044               F230730    051000001  2011110700936BPAFRANCISCA FELIX               19600903I04    010
376622520111110087149068000322532020111118003110206010079               M230730    081000001  2011110700939BPAJOSE LIMA                     19301216I99    010
376622520111110087149068000322532020111118003120206010079               F230730    063000001  2011110700943BPAMARIA DO CARMO LIMA           19480920I99    010
376622520111110087149068000322532020111118003130206010044               F230730    047000001  2011110700945BPAROSIMEIRE MARINHO PAULINO     19640615I99    010
376622520111110087149068000322532020111118003140206010028               M230730    045000001  2011110700950BPAJOSE RODRIGUES FILHO          19660206I01    010
376622520111110087149068000322532020111118003150206010079               M230730    077000001  2011110800179BPAJOAO PAZ FILHO                19340526I99    010
376622520111110087149068000322532020111111003160206010044               F230730    049000001  2011110800192BPAMARIA ZILMA PEIXOTO           19620216I01    010
376622520111110087149068000322532020111109003170206030037               F230730    040000001  2011110800362BPAMARIA CLEONICE PINHEIRO       19710531I99    010
376622520111110087149068000322532020111114003180206010079               M230750    023000001  2011110800595BPARONILDO ALVES DE OLIVEIRA     19880317I04    010
376622520111110087149068000322532020111117003190206010079               F230730    015000001  2011110800603BPARITA DE CASSIA VITORINO TAVEIR19960208I99    010
376622520111110087149068000322532020111110003200206030037               F230730    039000001  2011110800979BPAEDILENE MARQUES DA SILVA      19721226I01    010
376622520111110087149068000322532020111111004010206010028               M230730    038000001  2011110900507BPAGILBERTO DA SILVA             19731011I04    010
376622520111110087149068000322532020111114004020206030010               F230730    047000001  2011110900551BPAANTONIO ALVES DA SILVA        19640517I99    010
376622520111110087149068000322532020111114004030206010079               M230730    052000001  2011110900649BPASEBASTIAO BANDEIRA DE ALMEIDA 19600102I04    010
376622520111110087149068000322532020111117004040206020031               F230730    018000001  2011110901027BPARENATA DOS SANTOS LIMA        19930930I04    010
376622520111110087149068000322532020111111004050206030029               F230730    046000001  2011111000127BPAMARILEUZA BEZERRA DA COSTA    19650707I99    010
376622520111110087149068000322532020111114004060206030010               M230730    071000001  2011111000197BPAJOSE MOREIRA DA SILVA         19400228I99    010
376622520111110087149068000322532020111116004070206030010               F230730    013000001  2011111000697BPACAMILA TAYNARA LIMA RAMOS     19981229I01    010
376622520111110087149068000322532020111116004080206030037               F230730    013000001  2011111000698BPACAMILA TAYNARA LIMA RAMOS     19981229I01    010
376622520111110087149068000322532020111116004090206010010               F230730    055000001  2011111000711BPACICERA INACIO DE FREITAS TEIXE19561201I04    010
376622520111110087149068000322532020111116004100206010028               F230730    055000001  2011111000717BPACICERA INACIO DE FREITAS TEIXE19561201I04    010
376622520111110087149068000322532020111118004110206010079               F230730    040000001  2011111100110BPASOLANGE ALMEIDA SILVA         19710408I99    010
376622520111110087149068000322532020111114004120206010079               M230730    000000001  2011111100369BPANIKOLLAS MEIRA TAVARES        20110528I99    010
376622520111110087149068000322532020111116004130206010079               M230730    019000001  2011111100438BPARENAN DE LIMA SANTOS          19921015I01    010
376622520111110087149068000322532020111116004140206010079               M230730    047000001  2011111400071BPASANDRO NICACIO SILVINO PEREIRA19640221I01    010
376622520111110087149068000322532020111116004150206010079               F230730    033000001  2011111400279BPAMARIA CICERA SOARES           19780616I99    010
376622520111110087149068000322532020111118004160206010079               F230730    019000001  2011111400321BPAMARIA ELISABETH DE SOUSA      19921010I99    010
376622520111110087149068000322532020111121004170206010079               F230730    075000001  2011111400386BPAMARIA DO SOCORRO DA SILVA     19360806I99    010
376622520111110087149068000322532020111121004180206010079               F230730    056000001  2011111400440BPAMARIA DO SOCORRO DA SILVA     19550327I99    010
376622520111110087149068000322532020111121004190206010079               F230730    035000001  2011111400447BPADAMIANA DA SILVA RIBEIRO      19761019I02    010
376622520111110087149068000322532020111118004200206010079               F230730    045000001  2011111400548BPARITA MARIA PAULO DE MATOS     19660421I04    010
376622520111110087149068000322532020111121005010206030037               F230730    066000001  2011111400594BPAMARIA PIA DE ARAUJO           19450505I99    010
376622520111110087149068000322532020111121005020206030010               F230730    066000001  2011111400595BPAMARIA PIA DE ARAUJO           19450505I99    010
376622520111110087149068000322532020111116005030206010028               F230730    030000001  2011111400604BPAANA PAULA ALVES GOMES         19810216I99    010
376622520111110087149068000322532020111121005040206010079               M230730    030000001  2011111700149BPADELANIO DE ARAUJO SANTOS      19810921I04    010
376622520111110087149068000322532020111122005050206010079               F230730    051000001  2011111700491BPAMARIA DO SOCORRO MOURA MARTINS19601107I99    010
376622520111110087149068000322532020111122005060206010079               M230730    089000001  2011111700938BPAJOVINA AMELIA DE ALMEIDA      19220702I99    010
376622520111110087149068000322532020111123005070206010079               F230730    047000001  2011111800418BPACICERA ADALGISA DA COSTA      19641009I99    010
376622520111110087149068000322532020111122005080206010079               F230730    000000001  2011111800433BPAMARIA CLARA HONORATO SILVA    20110209I99    010
376622520111110087149068000322532020111122005090206010079               F230730    001000001  2011111800440BPAMARIA NATALIA DOS SANTOS SILVA20101007I99    010
376622520111110087149068000322532020111122005100206010079               F230730    044000001  2011112100290BPAFERNANDA DESIDERIO DE SOUSA   19671203I04    010
376622520111110087149068000322532020111123005110206010079               M230730    074000001  2011112100515BPAJOSE FERREIRA SALES           19370529I04    010
376622520111110087149068000322532020111123005120206010044               F230730    027000001  2011112100858BPAVANESKA APARECIDA SOBREIRA DA 19840811I01    010
376622520111110087149068000322532020111123005130206010028               M230730    054000001  2011112101014BPAFRANCISCO SANTOS TEIXEIRA     19570821I99    010
376622520111110087149068000322532020111128005140206010079               F230730    001000001  2011112200231BPAGEANDERSON DA SILVA SANTOS    20100802I99    010
376622520111110087149068000322532020111123005150206010028               M230730    055000001  2011112200416BPARAIMUNDO IVANILDO DE SOUSA BOT19561217I99    010
376622520111110087149068000322532020111123005160206010052               M230730    072000001  2011112200494BPAJOAO GOMES CARNEIRO           19390930I01    010
376622520111110087149068000322532020111125005170206010079               M230730    046000001  2011112300004BPAJOAO ESTEVAO DE LIMA          19650630I99    010
376622520111110087149068000322532020111128005180206010044               F230730    056000001  2011112400001BPAMARIA DE FATIMA DA CONCEICAO  19550513I99    010
376622520111110087149068000322532020111128005190206010079               F230730    020000001  2011112400002BPACICERA POLYANNA SANTOS FLOR   19911006I04    010
376622520111110087149068000322532020111128005200206010079               M230730    020000001  2011112400034BPACICERO TIAGO LIMA             19910725I01    010
376622520111110087149068000322532020111128006010206010028               F230730    034000001  2011112400047BPARITA DE CASSIA MONTEIRO       19770212I99    010
376622520111110087149068000322532020111125006020206010079               M230730    069000001  2011112400102BPAJOSE VIRGILIO DOS SANTOS      19421111I99    010
376622520111110087149068000322532020111125006030206010079               F230730    056000001  2011112400177BPAHELENA RODRIGUES ALENCAR      19560108I99    010
376622520111110087149068000322532020111129006040206010079               M230730    047000001  2011112400380BPADAMIAO BARBOSA DOS SANTOS     19640502I01    010
376622520111110087149068000322532020111125006050206030029               M230730    030000001  2011112400513BPAFRANCISCO PEREIRA DA SILVA    19811011I99    010
376622520111110087149068000322532020111129006060206010028               M230730    030000001  2011112401033BPAFRANCISCO RONALDO COSTA DA SIL19810918I99    010
376622520111110087149068000322532020111129006070206010079               M230730    071000001  2011112401037BPAVALDIVINO BEZERRA DA SILVA    19401020I99    010
376622520111110087149068000322532020111129006080206030010               F230730    079000001  2011112800245BPAALICE JOSEFA DA CONCEICAO     19320320I04    010
