#BPA#2012030001720000091838CLINICA DE ULTRASSONOGRAFIA AN38966300000000000000SECRETARIA MUNICIPAL DE SAUDE           MVER1.0.7  
389663320120320383419942000222532020120301001010204060028               F230730    046000001  2012022700071BPACOSMA JANUARIO RIBEIRO        19650816I01    010
389663320120320383419942000222532020120301001020204060028               F230730    077000001  2012022700417BPALINDALVA GONCALVES            19341026I99    010
389663320120320383419942000222532020120301001030204060028               F230730    057000001  2012022700530BPAMARIA DE SOCORRO DA SILVA MELO19541110I99    010
389663320120320383419942000222532020120301001040204060028               F230730    071000001  2012022700827BPAJOSEFA BATISTA DE LIMA        19401126I99    010
389663320120320383419942000222532020120301001050204060028               F230730    062000001  2012022700918BPAMARIA DO SOCORRO BEZERRA DE MO19500310I99    010
389663320120320383419942000222532020120302001060204060028               F230730    081000001  2012022800008BPAMARIA GENTIL DE OLIVEIRA      19310327I99    010
389663320120320383419942000222532020120302001070204060028               F230730    057000001  2012022800892BPAMARIA RAIMUNDA DA CONCEICAO   19550402I99    010
389663320120320383419942000222532020120302001080204060028               F230730    062000001  2012022801042BPAFRANCISCA SARAIVA ALVES       19500309I99    010
389663320120320383419942000222532020120301001090204060028               F230730    079000001  2012022801056BPAMARIA DE LOURDES VIEIRA       19320704I99    010
389663320120320383419942000222532020120302001100204060028               F230730    058000001  2012022801072BPAMARIA DA SILVA CALIXTO        19540205I99    010
389663320120320383419942000222532020120302001110204060028               F230730    073000001  2012022801133BPAMARIA LUZIMAR DE SOUSA        19390211I99    010
389663320120320383419942000222532020120301001120204060028               F230730    050000001  2012022801275BPAFRANCISCA IRMA BANDEIRA CLEMEN19610422I01    010
389663320120320383419942000222532020120301001130204060028               M230730    055000001  2012022900051BPAMARIA ROGERIO MORAIS          19560531I99    010
389663320120320383419942000222532020120305001140204060028               F230730    047000001  2012022900072BPAFRANCISCA ROSALIA NOGUEIRA    19640905I04    010
389663320120320383419942000222532020120305001150204060028               F230730    062000001  2012022900088BPARAIMUNDA SOUZA E SILVA        19490725I99    010
389663320120320383419942000222532020120305001160204060028               F230730    065000001  2012022900457BPAMARIA LAURA PEREIRA DO NASCIME19470401I99    010
389663320120320383419942000222532020120306001170204060028               F230730    057000001  2012022900493BPAMARIA DE FATIMA RODRIGUES     19540601I99    010
389663320120320383419942000222532020120306001180204060028               F230730    062000001  2012022900620BPAMARINETE APOLINARIO DE SOUSA  19491216I04    010
389663320120320383419942000222532020120305001190204060028               F230730    074000001  2012022900623BPAANTONIA ALVES DA CONCEICAO    19371218I99    010
389663320120320383419942000222532020120305001200204060028               F230320    052000001  2012022900738BPAFRANCISCA GOMES PALMEIRA      19591226I99    010
389663320120320383419942000222532020120305002010204060028               F230730    082000001  2012022901022BPAMARIA FELICIO DA SILVA        19290914I99    010
389663320120320383419942000222532020120305002020204060028               F230730    068000001  2012022901025BPAGONCALA JOSE DE MEDEIROS      19430809I99    010
389663320120320383419942000222532020120306002030204060028               F230730    048000001  2012022901471BPAMIRIAN MARIA DE MEDEIROS      19630926I99    010
389663320120320383419942000222532020120301002040204060028               F230730    052000001  2012030101104BPAGIZELIA DUARTE NASCIMENTO     19590517I99    010
389663320120320383419942000222532020120305002050204060028               F230730    068000001  2012030101693BPAHERMINIA NASCIMENTO BARBOSA   19440411I01    010
389663320120320383419942000222532020120306002060204060028               F230730    046000001  2012030102077BPAMARIA APARECIDA TAVARES DE MAC19650513I01    010
389663320120320383419942000222532020120306002070204060028               F230730    077000001  2012030102253BPAMARIA DE ALCANTARA COSTA      19340606I99    010
389663320120320383419942000222532020120306002080204060028               F230730    069000001  2012030102276BPAFRANCISCA ELZA BENTO VIANA    19421124I01    010
389663320120320383419942000222532020120306002090204060028               F230730    053000001  2012030102604BPAPEDRINA ALVES CARVALHO        19580629I99    010
389663320120320383419942000222532020120301002100204060028               F230730    045000001  2012030102706BPAFRANCISCA INACIA DE FRANCA    19670317I99    010
389663320120320383419942000222532020120306002110204060028               F230730    042000001  2012030102707BPACICERA DE MATOS DANTAS        19690507I99    010
389663320120320383419942000222532020120314002120204060028               F230730    070000001  2012030102708BPAANGELINA SILVA DE OLIVEIRA    19410501I99    010
389663320120320383419942000222532020120323002130204060028               F230730    070000001  2012030102709BPASUFIA DIMAS                   19410512I99    010
389663320120320383419942000222532020120323002140204060028               F230080    062000001  2012030102710BPAMARIA BERNADETE MIRANDA DE SAM19490801I99    010
389663320120320383419942000222532020120323002150204060028               F230730    073000001  2012030102711BPALUCINDA DO NASCIMENTO FREITAS 19390107I99    010
389663320120320383419942000222532020120323002160204060028               F230730    060000001  2012030102712BPAFRANCISCA TEREZA DOS SANTOS LI19510419I99    010
389663320120320383419942000222532020120308002170204060028               F230730    063000001  2012030102883BPAISABEL DE JESUS SILVA BRITO   19481122I99    010
389663320120320383419942000222532020120308002180204060028               F230720    052000001  2012030102884BPAJACINTA DE FATIMA VIDAL       19591229I99    010
389663320120320383419942000222532020120308002190204060028               F230730    057000001  2012030102885BPAMARIA LUCIA JOVINO DE SANTANA 19541013I99    010
389663320120320383419942000222532020120308002200204060028               F230320    056000001  2012030102886BPATEREZINHA DE JESUS RAPOSO     19551230I99    010
389663320120320383419942000222532020120308003010204060028               F230730    059000001  2012030102895BPAFRANCISCA FERNANDES DA CUNHA  19521017I99    010
389663320120320383419942000222532020120308003020204060028               F230730    053000001  2012030102896BPAFRANCISCA ALVES DE ALMEIDA    19580817I99    010
389663320120320383419942000222532020120308003030204060028               F230730    052000001  2012030102897BPAMARIA NATERCIA ONOFRE PAIVA   19590804I99    010
389663320120320383419942000222532020120308003040204060028               F230730    029000001  2012030102898BPAANTONIA LUCIA FERREIRA        19830308I99    010
389663320120320383419942000222532020120308003050204060028               F230730    045000001  2012030102899BPAMARIA SANTA FELIX GOMES       19660801I99    010
389663320120320383419942000222532020120308003060204060028               F230730    069000001  2012030102900BPAIRACEMA SOARES BEZERRA        19430215I99    010
389663320120320383419942000222532020120312003070204060028               F230730    062000001  2012030102901BPAMARIA GOMES DE MELO           19490419I99    010
389663320120320383419942000222532020120312003080204060028               F230730    073000001  2012030102902BPAMARIA ELZA CARLOS ADEODTO     19390325I99    010
389663320120320383419942000222532020120312003090204060028               F230730    075000001  2012030102903BPAISAULINA MARIA DE SOUZA       19361102I99    010
389663320120320383419942000222532020120312003100204060028               F230730    062000001  2012030102904BPAENGRACIA IDALINA DE BARROS    19490913I99    010
389663320120320383419942000222532020120312003110204060028               F230730    066000001  2012030102905BPAMARIA JOSEFA DE LIMA          19451027I99    010
389663320120320383419942000222532020120312003120204060028               F230730    053000001  2012030102906BPAMARIA ALZENIR AMARO           19590123I99    010
389663320120320383419942000222532020120312003130204060028               F230730    063000001  2012030102907BPAIRENICE MARIA DE SOUSA        19490125I99    010
389663320120320383419942000222532020120312003140204060028               F230730    064000001  2012030102908BPAMARIA PEREIRA DE SOUSA        19471102I99    010
389663320120320383419942000222532020120312003150204060028               F230730    072000001  2012030102909BPAMARIA ALZENIR DE SOUSA        19400103I99    010
389663320120320383419942000222532020120312003160204060028               F230730    069000001  2012030102910BPAFRANCISCA BATISTA DA SILVA    19420912I99    010
389663320120320383419942000222532020120313003170204060028               F230250    050000001  2012030102911BPAMARIA LEIDE DE ARAUJO         19610514I99    010
389663320120320383419942000222532020120313003180204060028               F230320    052000001  2012030102912BPAFRANCISCA GOMES PALMEIRA      19591226I99    010
389663320120320383419942000222532020120313003190204060028               F230730    051000001  2012030102913BPAMARIA BARBOSA DIAS            19600618I99    010
389663320120320383419942000222532020120313003200204060028               F230730    080000001  2012030102914BPARAIMUNDA MARIA DE ARAUJO      19310527I99    010
389663320120320383419942000222532020120313004010204060028               M230730    067000001  2012030102926BPALINOR MIGUEL DE LUCENA        19450115I99    010
389663320120320383419942000222532020120313004020204060028               F230730    081000001  2012030102927BPAIRACI MIGUEL VITAL            19301115I99    010
389663320120320383419942000222532020120313004030204060028               F230710    064000001  2012030102928BPAMARIA HORACINA ROBERTO        19471019I99    010
389663320120320383419942000222532020120313004040204060028               F230730    063000001  2012030102929BPAGILVANIA CARLOS DA SILVA      19480504I99    010
389663320120320383419942000222532020120313004050204060028               F230810    050000001  2012030102930BPAGERALDA REGINA DANTAS         19610819I99    010
389663320120320383419942000222532020120313004060204060028               F230730    058000001  2012030102931BPATEREZINHA RODRIGUES GOMES     19531223I99    010
389663320120320383419942000222532020120323004070204060028               F230730    085000001  2012030102932BPAMARIA DAS DORES DE SOUSA      19260828I99    010
389663320120320383419942000222532020120327004080204060028               F230200    068000001  2012030102933BPAFRANCISCA FERREIRA ARAUJO     19440112I99    010
389663320120320383419942000222532020120328004090204060028               F230730    074000001  2012030102934BPAADALGISA DO AMARAL FEITOSA    19380323I99    010
389663320120320383419942000222532020120305004100204060028               M230730    074000001  2012030102936BPACICERO ANTONIO DE SOUSA       19370820I99    010
389663320120320383419942000222532020120305004110204060028               F230730    074000001  2012030102937BPAMARIA MAROLI DA SILVA         19370530I99    010
389663320120320383419942000222532020120305004120204060028               F230730    077000001  2012030102938BPAMARIA NAZARE DA SILVA         19350403I99    010
389663320120320383419942000222532020120305004130204060028               F230730    069000001  2012030102939BPAJOANA MARIA SANTANA DA SILVA  19421020I99    010
389663320120320383419942000222532020120305004140204060028               F230730    070000001  2012030102940BPAPEDRINA PEREIRA DOS ANJOS     19411021I99    010
389663320120320383419942000222532020120306004150204060028               F230730    076000001  2012030102941BPAMARIA DE JESUS SILVA          19350520I99    010
389663320120320383419942000222532020120306004160204060028               F230730    077000001  2012030102942BPAMARIA BETIZA DANTAS           19340819I99    010
389663320120320383419942000222532020120306004170204060028               F230730    060000001  2012030102943BPAMARIA CEZARIO DE ARAUJO       19520331I99    010
389663320120320383419942000222532020120306004180204060028               F230730    067000001  2012030102944BPAMARIA TOME DE OLIVEIRA        19440429I99    010
389663320120320383419942000222532020120306004190204060028               F230730    065000001  2012030102945BPAMARIA SOCORRO MENDES BELMONTE 19460615I99    010
389663320120320383419942000222532020120307004200204060028               F230730    071000001  2012030102946BPAANTONIA FEITOSA LEAL          19400708I99    010
389663320120320383419942000222532020120307005010204060028               F230730    052000001  2012030102947BPAMARIA ELZA GOMES DE MEDEIROS  19590709I99    010
389663320120320383419942000222532020120307005020204060028               F230730    053000001  2012030102948BPADJANIRA ALEXANDRE PINHEIRO    19581008I99    010
389663320120320383419942000222532020120307005030204060028               F230320    054000001  2012030102949BPACECI RIBEIRO BARCELAR         19570615I99    010
389663320120320383419942000222532020120306005040204060028               F230730    052000001  2012030200088BPAMARIA DUARTE FERREIRA         19590722I99    010
389663320120320383419942000222532020120307005050204060028               F230730    061000001  2012030200479BPAMARIA DE LOURDES DOS SANTOS   19510202I99    010
389663320120320383419942000222532020120306005060204060028               F230730    054000001  2012030200515BPAMARIA ZULEIDE BATISTA         19580124I99    010
389663320120320383419942000222532020120307005070204060028               F230730    051000001  2012030200946BPAMARIA DE FATIMA PEREIRA       19600930I99    010
389663320120320383419942000222532020120307005080204060028               F230730    072000001  2012030500962BPAMARIA ALENCAR ALVES           19390720I04    010
389663320120320383419942000222532020120307005090204060028               F230730    059000001  2012030500968BPAJANE FRANCISCO MONTEIRO       19521208I99    010
389663320120320383419942000222532020120307005100204060028               F230730    072000001  2012030501146BPAFRANCISCA HELENA GOMES        19390417I99    010
389663320120320383419942000222532020120307005110204060028               F230730    053000001  2012030501198BPAFRANCISCA DE SANTANA          19580826I99    010
389663320120320383419942000222532020120307005120204060028               F230730    057000001  2012030501401BPAROSA MARIA TAVARES BORGES     19540818I99    010
389663320120320383419942000222532020120307005130204060028               F230730    072000001  2012030501517BPAMARIA DE LOURDES LIMA         19390625I99    010
389663320120320383419942000222532020120307005140204060028               F230730    048000001  2012030501558BPAJOSEFA ALEXANDRE DA SILVA     19630607I99    010
389663320120320383419942000222532020120307005150204060028               F230730    067000001  2012030501769BPAMARIA DO NASCIMENTO SOUZA     19440615I99    010
389663320120320383419942000222532020120312005160204060028               M230730    069000001  2012030600720BPAPEDRO MONTEIRO DE OLIVEIRA    19430130I99    010
389663320120320383419942000222532020120308005170204060028               F230730    053000001  2012030600757BPAMARIA DO SOCORRO SANTOS GOMES 19581031I99    010
389663320120320383419942000222532020120312005180204060028               F230730    054000001  2012030601238BPAMARIA LUCIA DA SILVA          19571129I99    010
389663320120320383419942000222532020120308005190204060028898000148155334F230730    077000001  2012030601240BPAHONORINDA LAU DA COSTA        19350308I99    010
389663320120320383419942000222532020120307005200204060028               F230730    047000001  2012030601293BPAMARIA IONE DE LIMA            19640802I99    010
389663320120320383419942000222532020120308006010204060028               F230730    058000001  2012030700249BPAMARIA DE FATIMA SILVA         19530802I99    010
389663320120320383419942000222532020120312006020204060028               M230730    071000001  2012030700427BPADAMIAO SIMIAO DE ARAUJO       19401012I01    010
389663320120320383419942000222532020120312006030204060028               F230730    064000001  2012030700436BPAMARIA LUCIA ROLIM DOS SANTOS  19471018I99    010
389663320120320383419942000222532020120308006040204060028               F230730    041000001  2012030700602BPAFRANCISCA MARINA DA SILVA     19701203I01    010
389663320120320383419942000222532020120308006050204060028               F230730    061000001  2012030700613BPAMARIA VALDENIRA DOS SANTOS SIL19501225I99    010
389663320120320383419942000222532020120312006060204060028               F230730    047000001  2012030800093BPAANA FELIPE DA SILVA           19641006I99    010
389663320120320383419942000222532020120313006070204060028               F230730    061000001  2012030800723BPAMARIA DO CARMO DA CONCEICAO   19510119I99    010
389663320120320383419942000222532020120313006080204060028               M230730    066000001  2012030801082BPAJOSE COSTA DA SILVA           19460127I99    010
389663320120320383419942000222532020120313006090204060028               M230730    071000001  2012030801084BPAJOSE VALERIO DA SILVA         19400530I99    010
389663320120320383419942000222532020120313006100204060028               F230730    087000001  2012030801087BPAJOSEFA MARTA SULINA           19240626I99    010
389663320120320383419942000222532020120314006110204060028               F230730    055000001  2012030801396BPAJOSEFA ROBERTO DOS SANTOS     19561118I04    010
389663320120320383419942000222532020120313006120204060028               F230730    072000001  2012030900216BPAJULIETA PESSOA DE ARAUJO      19400201I99    010
389663320120320383419942000222532020120314006130204060028               F230730    060000001  2012030900219BPACICERA CAMPOS DE SOUSA        19510430I99    010
389663320120320383419942000222532020120315006140204060028               F230730    054000001  2012030900337BPAANA VITAL BATISTA             19570801I04    010
389663320120320383419942000222532020120315006150204060028               F230730    062000001  2012030900450BPAFRANCISCA AVELINO DE OLIVEIRA 19490711I01    010
389663320120320383419942000222532020120315006160204060028               F230730    057000001  2012030900767BPAMARIA ESTEVES DOS SANTOS      19550210I99    010
389663320120320383419942000222532020120314006170204060028               F230730    061000001  2012031200593BPARAIMUNDA DA GLORIA BATALHA    19501031I99    010
389663320120320383419942000222532020120315006180204060028               F230730    045000001  2012031200684BPACICERA ALMEIDA DO NASCIMENTO  19660910I99    010
389663320120320383419942000222532020120314006190204060028               F230730    066000001  2012031200722BPAMARIA DAS NEVES MACIEL        19450930I99    010
389663320120320383419942000222532020120315006200204060028               F230730    064000001  2012031300234BPAMARIA ESTELA DO NASCIMENTOMORA19471120I99    010
389663320120320383419942000222532020120320007010204060028               F230730    065000001  2012031400023BPAROSA ANA DO NASCIMENTO        19460630I01    010
389663320120320383419942000222532020120321007020204060028               M230730    024000001  2012031400038BPACICERO HENRIQUE DE LIMA       19870915I99    010
389663320120320383419942000222532020120321007030204060028               M230730    087000001  2012031400090BPAMIGUEL FRANCISCO DA SILVA     19240508I99    010
389663320120320383419942000222532020120320007040204060028               F230730    050000001  2012031400181BPAMARIA APARECIDA BRAZ DE MATOS 19610419I01    010
389663320120320383419942000222532020120321007050204060028               F230730    072000001  2012031400628BPAJOSEFA BARBOSA DA SILVA       19400117I99    010
389663320120320383419942000222532020120320007060204060028               F230730    078000001  2012031400879BPAMARIA DE JESUS DOS SANTOS     19331202I99    010
389663320120320383419942000222532020120321007070204060028165530845730009F230730    069000001  2012031401022BPASEVERINA NUNES FERREIRA       19430331I01    010
389663320120320383419942000222532020120320007080204060028               F230730    052000001  2012031401025BPALUCI ALMEIDA DOS SANTOS       19600127I01    010
389663320120320383419942000222532020120320007090204060028               F230730    060000001  2012031401042BPAMARIA DA SILVA SOUSA          19511229I99    010
389663320120320383419942000222532020120322007100204060028               F230730    058000001  2012031401083BPAMARIA DAS GRACAS SILVA DE OLIV19530615I99    010
389663320120320383419942000222532020120322007110204060028               F230730    065000001  2012031401192BPATEREZINHA BEZERRA CAVALCANTE  19461031I99    010
389663320120320383419942000222532020120322007120204060028               F230730    072000001  2012031500062BPATEREZINHA CAVALCANTE LEITE    19400405I04    010
389663320120320383419942000222532020120322007130204060028               F230730    052000001  2012031500260BPAMARIA DARC M PESSOA           19590717I99    010
389663320120320383419942000222532020120322007140204060028               F230730    050000001  2012031500278BPAMARIA APARECIDA DA SILVA FERNA19611012I99    010
389663320120320383419942000222532020120326007150204060028               F230730    049000001  2012032000037BPALUCIA RODRIGUES DE MELO       19621231I01    010
389663320120320383419942000222532020120326007160204060028               F230730    068000001  2012032000103BPALUZANIRA ALVES DE ARAUJO      19430425I03    010
389663320120320383419942000222532020120326007170204060028               F230730    040000001  2012032000109BPACICERA IRACEMA DA CONCEICAO   19710529I01    010
389663320120320383419942000222532020120326007180204060028               F230730    069000001  2012032000199BPAANTONIA LAURINDO DA SILVA     19420413I99    010
389663320120320383419942000222532020120326007190204060028               M230730    046000001  2012032000236BPAANTONIO VICENTE DE PAULA      19660206I99    010
389663320120320383419942000222532020120327007200204060028               F230730    051000001  2012032000570BPAIRENE FIRMINO DE SOUZA        19600806I99    010
389663320120320383419942000222532020120327008010204060028               F230730    052000001  2012032000598BPAFRANCISCA SERAFIM COELHO      19590927I99    010
389663320120320383419942000222532020120326008020204060028               F230730    055000001  2012032000625BPAMARIA DAS DORES DA CONCEICAO  19570327I99    010
389663320120320383419942000222532020120326008030204060028               F230730    070000001  2012032000698BPAMARIA DO NASCIMENTO           19411208I99    010
389663320120320383419942000222532020120327008040204060028898050028103043F230730    068000001  2012032100031BPAENOCA ALCANTARA DE SOUZA      19430811I99    010
389663320120320383419942000222532020120327008050204060028               F230730    052000001  2012032100034BPAMARIA DA PENHA FELIX DA SILVA 19591023I99    010
389663320120320383419942000222532020120326008060204060028               F230730    062000001  2012032100192BPAFRANCISCA DOURADO DO NASCIMENT19500228I99    010
389663320120320383419942000222532020120327008070204060028               F230730    080000001  2012032100491BPAALZIRA DE SOUSA LIMA          19310817I04    010
389663320120320383419942000222532020120327008080204060028               F230730    040000001  2012032100661BPAMARIA DO SOCORRO DE SOUSA SANT19711012I99    010
389663320120320383419942000222532020120327008090204060028               F230730    050000001  2012032100662BPAFRANCISCA FRANCINETE GOMES    19620126I99    010
389663320120320383419942000222532020120327008100204060028               F230730    085000001  2012032100669BPAMARIA DO SOCORRO TAVARES      19270228I99    010
389663320120320383419942000222532020120328008110204060028               F230730    062000001  2012032200002BPALUZIA DOS SANTOS              19491215I99    010
389663320120320383419942000222532020120328008120204060028               F230730    070000001  2012032200121BPAJOSEFA BEZERRA PEREIRA        19410714I04    010
389663320120320383419942000222532020120326008130204060028               F230730    055000001  2012032200280BPAMARIA GORETE ROLIM DUARTE     19561026I99    010
389663320120320383419942000222532020120328008140204060028               F230730    057000001  2012032200661BPALAURA MOREIRA DA SILVA        19540825I04    010
389663320120320383419942000222532020120328008150204060028               F230730    074000001  2012032200832BPASEBASTIANA ALVES MARTINS      19371224I99    010
389663320120320383419942000222532020120328008160204060028               F230730    055000001  2012032200895BPAIVANILDE VIEIRA DA SILVA GOMES19561125I04    010
389663320120320383419942000222532020120328008170204060028               F230730    046000001  2012032200905BPAMARIA APARECIDA DE ARAUJO SOUZ19651018I99    010
389663320120320383419942000222532020120328008180204060028               F230730    046000001  2012032300249BPAFRANCISCA SANTANA RIBEIRO     19651205I04    010
389663320120320383419942000222532020120328008190204060028               F230730    049000001  2012032600044BPAJAMILE GRANJA ALVES           19620415I99    010
389663320120320383419942000222532020120329008200204060028               F230730    072000001  2012032600381BPAMARIA SOCORRO DOS SANTOS      19390520I99    010
389663320120320383419942000222532020120329009010204060028               F230730    053000001  2012032600475BPACLARA MARIA DOS SANTOS        19580626I04    010
389663320120320383419942000222532020120329009020204060028               F230730    059000001  2012032700353BPAMARIA DO SOCORRO DA SILVA     19520910I99    010
389663320120320383419942000222532020120329009030204060028               F230730    058000001  2012032700369BPAMANUELA BEZERRA DE FATIMA SAMP19540313I99    010
389663320120320383419942000222532020120329009040204060028               F230730    058000001  2012032700394BPAALBERTINA FERREIRA RODRIGUES  19530807I04    010
389663320120320383419942000222532020120329009050204060028               F230730    044000001  2012032700466BPAMARIA ZEILMA OLIVEIRA DE MEDEI19680407I04    010
389663320120320383419942000222532020120329009060204060028               F230730    055000001  2012032700784BPAMARIA ELEQUICINA PEREIRA GOMES19570409I99    010
389663320120320383419942000222532020120330009070204060028               F230730    060000001  2012032700950BPAANTONIO ALVES BEZERRA         19511006I99    010
389663320120320383419942000222532020120330009080204060028               F230730    064000001  2012032800078BPAFRANCISCA DAS CHAGAS SILVA DE 19470901I99    010
389663320120320383419942000222532020120330009090204060028898050088421912F230730    058000001  2012032800244BPAFRANCINEIDE MARTINS DA SILVA  19530614I99    010
389663320120320383419942000222532020120330009100204060028898050058445228F230730    075000001  2012032800351BPAMARIA MOURA BARBOZA           19361028I99    010
389663320120320383419942000222532020120330009110204060028898050053547138F230730    050000001  2012032800372BPAMARIA DE FATIMA DA SILVA SANTO19610611I99    010
389663320120320383419942000222532020120330009120204060028               F230730    059000001  2012032900250BPAFATIMA MARIA BARBOSA CRISPIM  19521103I99    010
