#BPA#2012020001600000082149CLINICA DE ULTRASSONOGRAFIA AN38966300000000000000SECRETARIA MUNICIPAL DE SAUDE           MVER1.0.7  
389663320120220383419942000222532020120201001010204060028               F230730    065000001  2012012700480BPAMARIA LOURDES SOUSA           19470409I99    010
389663320120220383419942000222532020120201001020204060028               F230730    052000001  2012012700488BPAMARIA REGINA DA CONCEICAO     19600313I99    010
389663320120220383419942000222532020120201001030204060028               F230730    050000001  2012013000086BPAMARIA LUZINEIDE VIANA DO NASCI19610623I99    010
389663320120220383419942000222532020120201001040204060028               F230730    071000001  2012013000090BPAIRENE ALVES DE SOUSA          19400518I01    010
389663320120220383419942000222532020120201001050204060028               F230730    072000001  2012013000093BPAMARIA ALVES DE MORAIS         19390929I01    010
389663320120220383419942000222532020120201001060204060028               F230730    054000001  2012013000151BPAJOANA DARC LACERDA DA SILVA   19580218I01    010
389663320120220383419942000222532020120203001070204060028               F230730    043000001  2012013000696BPAIVONETE GOMES FELIX           19690114I04    010
389663320120220383419942000222532020120203001080204060028               F230730    046000001  2012013001138BPAMARIA MARLETE PACIFICO        19660221I99    010
389663320120220383419942000222532020120201001090204060028               F230730    070000001  2012013001200BPAOLIVIA PESSOA LIMA            19410603I04    010
389663320120220383419942000222532020120201001100204060028               F230730    051000001  2012013001208BPAMARIA AUXILIADORA NUNES FERREI19610223I99    010
389663320120220383419942000222532020120203001110204060028               F230730    064000001  2012013001254BPACICERA DA CONCEICAO DE MELO VI19480312I99    010
389663320120220383419942000222532020120203001120204060028               F230730    069000001  2012013001257BPAMARIA FRANCISCA SANTOS        19421208I99    010
389663320120220383419942000222532020120206001130204060028               F230730    072000001  2012013100085BPAMARIA CAVALCANTE DE OLIVEIRA  19390727I99    010
389663320120220383419942000222532020120206001140204060028               F230730    045000001  2012013100089BPACLEICE LUIZA FERREIRA ALVES   19660525I04    010
389663320120220383419942000222532020120206001150204060028               F230730    056000001  2012013100569BPAFRANCISCA PIRES DOS SANTOS    19550908I04    010
389663320120220383419942000222532020120206001160204060028               F230730    052000001  2012013100805BPAMARIA EUNICE SANTOS LACERDA   19600125I99    010
389663320120220383419942000222532020120206001170204060028               M230730    066000001  2012020101069BPAJOSE EDSON DE FREITAS GONCALVE19450907I99    010
389663320120220383419942000222532020120206001180204060028               F230730    080000001  2012020101329BPAMINERVINA FERNANDES           19320210I99    010
389663320120220383419942000222532020120206001190204060028               F230730    049000001  2012020101608BPAMARIA DE LOURDES SOUSA LIMA   19630103I99    010
389663320120220383419942000222532020120207001200204060028               F230730    072000001  2012020101662BPAMARIA DE LOURDES SILVA RODRIGU19390510I99    010
389663320120220383419942000222532020120207002010204060028               F230730    054000001  2012020101715BPAMARIA DO SOCORRO DO NASCIMENTO19580208I99    010
389663320120220383419942000222532020120207002020204060028               F230730    038000001  2012020101718BPAJOQUEBED DIAS PONTES          19730801I01    010
389663320120220383419942000222532020120206002030204060028               F230730    047000001  2012020101746BPAMARIA TELES DA SILVA          19641210I99    010
389663320120220383419942000222532020120207002040204060028               F230730    065000001  2012020102077BPAVICENCIA PEDRINA DE JESUS     19460811I99    010
389663320120220383419942000222532020120207002050204060028               F230730    058000001  2012020102089BPACONCEICAO DE MARIA MOISES CAVA19531106I99    010
389663320120220383419942000222532020120201002060204060028               F230730    045000001  2012020102423BPAMARIA ZELI DA SILVA DUARTE    19661001I99    010
389663320120220383419942000222532020120207002070204060028               F230730    051000001  2012020102424BPAMARIA SONIA MACEDO PITA       19610210I99    010
389663320120220383419942000222532020120208002080204060028               F230730    050000001  2012020102425BPAMARIA GONCALVES VIANA         19620201I99    010
389663320120220383419942000222532020120208002090204060028               F230730    074000001  2012020102426BPARAIMUNDA PEREIRA DE OLIVEIRA  19370517I99    010
389663320120220383419942000222532020120208002100204060028               F230730    049000001  2012020102427BPAFRANCISCA VALDEVINO PALMEIRA  19620605I99    010
389663320120220383419942000222532020120208002110204060028               F230730    056000001  2012020102428BPAFRANCISCA MARIA DA COSTA RIBEI19550727I99    010
389663320120220383419942000222532020120208002120204060028               F230730    058000001  2012020102429BPAFRANCISCA BEZERRA SILVA       19530722I99    010
389663320120220383419942000222532020120208002130204060028               F230730    046000001  2012020102430BPAROSELI DE SOUSA               19650603I99    010
389663320120220383419942000222532020120208002140204060028               F230730    048000001  2012020102431BPAVERA LUCIA DE SOUSA BARRETO   19630607I99    010
389663320120220383419942000222532020120208002150204060028               F230730    071000001  2012020102432BPACELI MARIA MACEDO GONCALVES   19400911I99    010
389663320120220383419942000222532020120208002160204060028               F230730    060000001  2012020102433BPAMARIA DAS GRACAS MENDEIROS    19510809I99    010
389663320120220383419942000222532020120209002170204060028               F230730    056000001  2012020102434BPALUZIA INACIO DE ARAUJO        19551204I99    010
389663320120220383419942000222532020120209002180204060028               F230730    059000001  2012020102435BPAFRANCISCA FRUTUOSO PIMENTA    19520627I99    010
389663320120220383419942000222532020120215002190204060028               F230730    078000001  2012020102436BPAHOZANA SOARES DA SILVA        19340129I99    010
389663320120220383419942000222532020120215002200204060028               F230730    078000001  2012020102437BPAMARIA DE FATIMA DOS REIS      19340129I99    010
389663320120220383419942000222532020120215003010204060028               F230730    051000001  2012020102438BPAANTONIA PEREIRA DE OLIVEIRA   19600623I99    010
389663320120220383419942000222532020120229003020204060028               F230730    062000001  2012020102439BPAMARIA LOURDES BEZERRA MATIAS  19490512I99    010
389663320120220383419942000222532020120229003030204060028               F230730    062000001  2012020102440BPAMARGARIDA OLIVEIRA SANTOS     19500130I99    010
389663320120220383419942000222532020120201003040204060028               F230730    061000001  2012020102442BPALUCIA VANDA DA SILVA          19500720I99    010
389663320120220383419942000222532020120201003050204060028               F230730    067000001  2012020102443BPAMARIA ROSA LIMA FERREIRA      19450405I99    010
389663320120220383419942000222532020120201003060204060028               F230730    078000001  2012020102460BPAJOANA LUIZA DE OLIVEIRA       19340308I99    010
389663320120220383419942000222532020120201003070204060028               F230730    089000001  2012020102461BPAETELVINA MARIA DA SILVA       19230310I99    010
389663320120220383419942000222532020120201003080204060028               F230730    074000001  2012020102462BPAROSA ALVES DA SILVA           19370904I99    010
389663320120220383419942000222532020120201003090204060028               F230730    068000001  2012020102463BPAFRANCISCA DE SOUSA ALENCAR    19430914I99    010
389663320120220383419942000222532020120201003100204060028               F230730    073000001  2012020102464BPARAIMUNDA DO ESPIRITO SANTO LIM19380419I99    010
389663320120220383419942000222532020120201003110204060028               F230730    076000001  2012020102465BPAMARIA EVANGELHISTA MACHADO    19351211I99    010
389663320120220383419942000222532020120201003120204060028               F230730    080000001  2012020102466BPAMARIA VALDIZIA BEZERRA        19320120I99    010
389663320120220383419942000222532020120201003130204060028               F230730    062000001  2012020102467BPAMARIA DE LOURDES FRANCA       19490519I99    010
389663320120220383419942000222532020120203003140204060028               F230730    074000001  2012020102468BPACREUZA ALVES MORAIS           19370731I99    010
389663320120220383419942000222532020120203003150204060028               F230730    071000001  2012020102469BPALIDUINA FERNANDES DE MOURA    19400909I99    010
389663320120220383419942000222532020120203003160204060028               F230730    069000001  2012020102470BPAANTONIA IZIDORIO BANTIM       19420526I99    010
389663320120220383419942000222532020120203003170204060028               F230730    073000001  2012020102471BPACREUZA DIAS DE OLIVEIRA       19381012I99    010
389663320120220383419942000222532020120203003180204060028               F230730    068000001  2012020102472BPAANTONIA PEREIRA LIMA BASTOS   19430510I99    010
389663320120220383419942000222532020120206003190204060028               F230730    069000001  2012020102473BPAALAIDE REGINA PINHEIRO DO NASC19420606I99    010
389663320120220383419942000222532020120206003200204060028               F230730    054000001  2012020102474BPALUCIA MARIA DA SILVA PEREIRA  19570713I99    010
389663320120220383419942000222532020120206004010204060028               F230730    073000001  2012020102499BPAMARIETA BEZERRA MARTINS       19390323I01    010
389663320120220383419942000222532020120206004020204060028               F230730    060000001  2012020102500BPAELIZABETE MARCELINO TAVARES   19520211I99    010
389663320120220383419942000222532020120206004030204060028               F230730    068000001  2012020102501BPAMARIA DAS DORES DE MELO       19440122I99    010
389663320120220383419942000222532020120206004040204060028               F230730    084000001  2012020102502BPAMARIA DE LOURDES QUEIROS DA SI19270510I99    010
389663320120220383419942000222532020120206004050204060028               F230730    056000001  2012020102503BPAFRANCISCA ALVES BARBOSA       19550511I99    010
389663320120220383419942000222532020120206004060204060028               F230080    072000001  2012020102504BPAMARIA LINS DE CARVALHO        19400210I99    010
389663320120220383419942000222532020120207004070204060028               F230730    068000001  2012020300083BPANEUSA A, FARIAS               19430707I99    010
389663320120220383419942000222532020120208004080204060028128845651930018F230730    041000001  2012020300085BPAJULITA PEREIRA SILVA          19701127I04    010
389663320120220383419942000222532020120207004090204060028               F230730    065000001  2012020300152BPAMARIA SOCORRO DIAS MOTA       19470211I04    010
389663320120220383419942000222532020120207004100204060028               F230730    069000001  2012020300274BPADEUSDEDITE DE ARAUJO          19420822I99    010
389663320120220383419942000222532020120209004110204060028               F230730    060000001  2012020600785BPAMARIA DE LOURDES BEZERRA      19520308I99    010
389663320120220383419942000222532020120209004120204060028               M230730    022000001  2012020600829BPACICERO RAFAEL ANUNCIADO       19900101I050001010
389663320120220383419942000222532020120209004130204060028               F230730    061000001  2012020700143BPAMARIA EURIMELIA DA SILVA DE DE19501211I99    010
389663320120220383419942000222532020120209004140204060028               F230730    051000001  2012020701079BPALUCIA ANTONIA PEREIRA         19601215I04    010
389663320120220383419942000222532020120210004150204060028               F230730    053000001  2012020800150BPAMARIA ANDRADE MARQUES         19580912I99    010
389663320120220383419942000222532020120210004160204060028               M230730    075000001  2012020800235BPAFRANCISCO JOSE MENEZES        19360514I01    010
389663320120220383419942000222532020120210004170204060028               F230730    069000001  2012020800294BPAJOSEFA BEZERRA DA HORA        19420613I01    010
389663320120220383419942000222532020120210004180204060028               F230730    065000001  2012020800691BPAFRANCISCA MATEUS ASSUNCAO SILV19470403I99    010
389663320120220383419942000222532020120209004190204060028               F230730    073000001  2012020800997BPASILVINA OLINDINA RODRIGUES    19390212I01    010
389663320120220383419942000222532020120210004200204060028               F230730    072000001  2012020801596BPAFRANCISCA LUCAS DE ALMEIDA    19390820I04    010
389663320120220383419942000222532020120213005010204060028               F230730    072000001  2012020900064BPAMARIA ZILDA E. PENHA          19390810I99    010
389663320120220383419942000222532020120213005020204060028               F230730    057000001  2012020900308BPAMARIA DO CARMO DE MELO NASCIME19550311I99    010
38966332012022038341994200022253202012021300503020406002834864024391F230730    066000001  2012020900401BPAJOSEFA FERREIRA DA SILVA      19460205I01    010
389663320120220383419942000222532020120213005040204060028               F230730    081000001  2012020900422BPAFRANCISCA OZENETE DOS SANTOS P19310110I04    010
389663320120220383419942000222532020120213005050204060028               F230730    055000001  2012020900435BPAMARIA DE FATIMA MENDES DE SOUS19560510I99    010
389663320120220383419942000222532020120213005060204060028               F230730    068000001  2012020900708BPAANTONIA VIANA DO NASCIMENTO   19431007I99    010
389663320120220383419942000222532020120213005070204060028               F230730    075000001  2012020900710BPAMARIA ALVES DE BRITO          19360705I99    010
389663320120220383419942000222532020120213005080204060028               M230730    073000001  2012020900741BPAFRANCISCO MARQUES DA SILVA    19380805I99    010
389663320120220383419942000222532020120209005090204060028               F230730    056000001  2012020901127BPAMARIA HELENA BELARMINO        19550502I99    010
389663320120220383419942000222532020120214005100204060028160806037220002F230730    063000001  2012020901159BPAMARIA SOCORRO DA SILVA        19490305I99    010
389663320120220383419942000222532020120214005110204060028               F230730    065000001  2012020901237BPADORACI DA SILVA RIBEIRO       19460531I02    010
389663320120220383419942000222532020120215005120204060028               F230730    071000001  2012020901337BPAFRANCISCA FERREIRA DA SILVA   19401004I01    010
389663320120220383419942000222532020120214005130204060028               F230730    046000001  2012020901387BPAIRENE DANTAS DE OLIVEIRA      19650505I99    010
389663320120220383419942000222532020120214005140204060028               F230730    076000001  2012020901431BPAFRANCISCA VIEIRA PETRONIO     19351210I99    010
389663320120220383419942000222532020120214005150204060028               F230730    069000001  2012021000059BPAANTONIA ALAIDE DIAS OLIVEIRA P19421011I99    010
389663320120220383419942000222532020120215005160204060028               F230730    072000001  2012021000237BPAMARIA FAGUNDES DA SILVA       19391214I99    010
389663320120220383419942000222532020120214005170204060028               F230730    064000001  2012021000348BPAMARIA BENEDITA TENORIO        19470504I99    010
389663320120220383419942000222532020120215005180204060028               F230730    043000001  2012021000559BPAMARLENE RODRIGUES DA SILVA    19680730I99    010
389663320120220383419942000222532020120214005190204060028               F230730    051000001  2012021000769BPAMARIA DO SOCORRO MOURA MARTINS19601107I99    010
389663320120220383419942000222532020120214005200204060028               F230730    051000001  2012021000775BPAMARIA DE LOURDES SAMPAIO DA SI19600618I99    010
389663320120220383419942000222532020120214006010204060028               F230730    054000001  2012021000776BPAVALDELIS FELIX DO NASCIMENTO  19570714I99    010
389663320120220383419942000222532020120215006020204060028               F230730    052000001  2012021000918BPAMARIA DE LOURDES DA CONCEICAO 19590926I99    010
389663320120220383419942000222532020120215006030204060028               F230730    056000001  2012021300049BPAMARIA DE FATIMA XAVIER DE BRIT19550703I99    010
389663320120220383419942000222532020120216006040204060028               F230730    072000001  2012021300473BPAMARIA JOSE DOS SANTOS         19391103I99    010
389663320120220383419942000222532020120216006050204060028               F230730    052000001  2012021300569BPAMARIA LUZINETE LIMA SANTOS    19600120I99    010
389663320120220383419942000222532020120216006060204060028               M230730    055000001  2012021300576BPAJOSEFA MORAIS DO NASCIMENTO   19560722I99    010
389663320120220383419942000222532020120216006070204060028               F230730    065000001  2012021400215BPAMARIA NAZARE BRAZ DA SILVA    19460917I99    010
389663320120220383419942000222532020120216006080204060028               F230730    075000001  2012021400222BPAMARIA LEDA BRANDAO            19360509I99    010
389663320120220383419942000222532020120216006090204060028               F230730    065000001  2012021400410BPARAIMUNDA CARDOSO BALBINO      19460810I99    010
389663320120220383419942000222532020120215006100204060028               F230730    067000001  2012021400501BPAMARIA DO SOCORRO ALVES DOS SAN19440524I99    010
389663320120220383419942000222532020120216006110204060028               F230730    063000001  2012021400573BPAMARIA CILEIDE LIMA SILVA      19490205I99    010
389663320120220383419942000222532020120215006120204060028               F230730    075000001  2012021400602BPAANTONIA EUNICE CAMILO VIEIRA  19360807I01    010
389663320120220383419942000222532020120216006130204060028               F230730    057000001  2012021400680BPAFRANCISCA PEREIRA LIMA        19540604I04    010
389663320120220383419942000222532020120216006140204060028               F230730    052000001  2012021401017BPAMARIA DE FATIMA FELIPE DA SILV19590917I99    010
389663320120220383419942000222532020120216006150204060028               F230730    057000001  2012021401144BPAJOSEFA MARIA DA SILVA AVELINO 19540616I04    010
389663320120220383419942000222532020120223006160204060028               F230730    069000001  2012021500376BPAELIZABETE SOUSA DE ALENCAR    19420727I99    010
389663320120220383419942000222532020120217006170204060028               F230730    070000001  2012021500405BPASEBASTIANA TEREZA RODRIGUES   19420224I99    010
389663320120220383419942000222532020120223006180204060028               F230730    051000001  2012021500408BPAMAURICEIA VIEIRA DA SILVA     19610116I04    010
389663320120220383419942000222532020120223006190204060028               F230730    070000001  2012021500410BPAADELINA COSTA MOURA           19420113I99    010
389663320120220383419942000222532020120217006200204060028               F230320    063000001  2012021500497BPAMARIA INACIO SILVAMOREIRA     19480706I99    010
389663320120220383419942000222532020120223007010204060028               F230730    070000001  2012021500549BPAMARIA INACIA ALVES            19411122I99    010
389663320120220383419942000222532020120217007020204060028               F230730    049000001  2012021500586BPAANA MARIA MOURA DE OLIVEIRA   19620509I99    010
389663320120220383419942000222532020120223007030204060028               F230730    054000001  2012021500660BPAMARIA DA PAZ DUARTE DO NASCIME19571122I99    010
389663320120220383419942000222532020120223007040204060028               F230730    051000001  2012021500664BPAMARIA DO CARMO SOUZA DIAS     19610124I99    010
389663320120220383419942000222532020120223007050204060028               F230730    064000001  2012021500733BPAMARIA GRANGEIRO DE SOUZA SANTO19471108I99    010
389663320120220383419942000222532020120223007060204060028               M230730    054000001  2012021500897BPAMARIA CANDIDO CARDOSO         19571222I99    010
389663320120220383419942000222532020120223007070204060028               M230730    081000001  2012021500925BPAGENI OLIVEIRA DA SILVA        19301110I99    010
389663320120220383419942000222532020120223007080204060028               F230730    065000001  2012021501226BPAMARIA ALENCAR ANASTACIO       19460924I99    010
389663320120220383419942000222532020120217007090204060028               F230730    082000001  2012021600163BPAVICENCIA MARIA DE ARAUJO      19290910I99    010
389663320120220383419942000222532020120224007100204060028               F230730    066000001  2012021600233BPAMARIA LUZIA DE SOUZA          19450508I99    010
389663320120220383419942000222532020120224007110204060028               F230730    055000001  2012021600433BPAMARIA APARECIDA ALVES BATISTA 19560904I01    010
389663320120220383419942000222532020120224007120204060028               F230730    058000001  2012021600459BPAANTONIA MARIA DANTAS          19531001I04    010
389663320120220383419942000222532020120227007130204060028               F230730    048000001  2012021600689BPAAURIA MARIA FERNANDES BATISTA 19630412I99    010
389663320120220383419942000222532020120227007140204060028               F230730    061000001  2012021600752BPAERONDINA LEITE LIMA           19501007I99    010
389663320120220383419942000222532020120227007150204060028               F230730    075000001  2012021600783BPALUIZA FERNANDES SAMPAIO       19370309I99    010
389663320120220383419942000222532020120227007160204060028               F230730    057000001  2012021700044BPAJOSEFA PEREIRA LIMA           19550123I99    010
389663320120220383419942000222532020120228007170204060028               F230730    076000001  2012021700104BPAMARIA FELICIA ALVES           19360325I99    010
389663320120220383419942000222532020120227007180204060028               F230730    067000001  2012021700388BPAANA MARIA GALVAO              19441124I04    010
389663320120220383419942000222532020120227007190204060028               F230730    079000001  2012021700453BPALUZIA MARIA DOS SANTOS TEIXEIR19330202I99    010
389663320120220383419942000222532020120228007200204060028               F230730    064000001  2012022300170BPAEDITE MARTINS PINTO           19470925I99    010
389663320120220383419942000222532020120228008010204060028               F230730    068000001  2012022300309BPACOSMA LOURENCO FERREIRA       19430813I04    010
389663320120220383419942000222532020120227008020204060028               F230730    073000001  2012022300371BPAMARIA DA SILVA SOUSA          19380920I99    010
389663320120220383419942000222532020120227008030204060028               F230730    042000001  2012022300377BPAIVANIA MARIA DE SOUSA MASCENA 19700312I99    010
389663320120220383419942000222532020120228008040204060028               F230730    050000001  2012022300600BPAVERA LUCIA MACHADO DE SOUSA   19610522I01    010
389663320120220383419942000222532020120228008050204060028               F230730    054000001  2012022300770BPAMARIA FERNANDES XAVIER DA SILV19570707I99    010
389663320120220383419942000222532020120227008060204060028               F230730    076000001  2012022300806BPAMARIA FERREIRA JANUARIO ABILIO19350703I99    010
389663320120220383419942000222532020120228008070204060028               F230730    079000001  2012022301067BPABELIZA RODRIGUES DA SILVA     19320701I01    010
389663320120220383419942000222532020120228008080204060028163775295200009F230730    061000001  2012022301113BPALUCINEIDE GOMES DANTAS        19510219I04    010
389663320120220383419942000222532020120228008090204060028               F230730    054000001  2012022400175BPABEATRIZ AMERICA DOS SANTOS    19570729I01    010
389663320120220383419942000222532020120228008100204060028               F230730    012000001  2012022400581BPAMARIA LUCIMAR LIRA NOGUEIRA   19990923I99    010
389663320120220383419942000222532020120228008110204060028               F230730    060000001  2012022400608BPAMARIA JOSE GERALDO DA SILVA   19520212I99    010
389663320120220383419942000222532020120229008120204060028               F230730    072000001  2012022400826BPAMARIA VILANIR DA SILVA        19390904I99    010
389663320120220383419942000222532020120229008130204060028               F230730    052000001  2012022700078BPAMARLENE MARQUES DA SILVA PEREI19600411I99    010
389663320120220383419942000222532020120229008140204060028209228733420003F230730    073000001  2012022700080BPAMARIA ROSENO SILVA            19380427I99    010
389663320120220383419942000222532020120229008150204060028               F230730    061000001  2012022700466BPAJOSEFA JUSTINO DA SILVA       19500820I99    010
389663320120220383419942000222532020120229008160204060028               M230730    056000001  2012022700676BPAFRANCIARDSON BEZERRA DO NASCIM19551121I04    010
389663320120220383419942000222532020120229008170204060028               F230730    058000001  2012022700679BPAMARIA DAILDA DE OLIVEIRA      19530702I99    010
389663320120220383419942000222532020120229008180204060028               F230730    051000001  2012022700909BPAFRANCISCA LUCIA DA SILVA      19600809I01    010
389663320120220383419942000222532020120229008190204060028               F230730    072000001  2012022701118BPARAIMUNDA MARIA DO NASCIMENTO  19390816I99    010
389663320120220383419942000222532020120229008200204060028               F230730    071000001  2012022701432BPARAIMUNDA MAXIMO FEITOSA       19410111I99    010
