#BPA#2011110000550000032157CLINICOFISIO                  68315813610420000131SECRETARIA MUNICIPAL DE SAUDE           MVER1.0.7  
6831587201111               22360520111108001010302060022               M230730G618050000012  2011110301378BPAJOSE AFONSO DA SILVA          19610524I04    010
6831587201111               22360520111108002010302060022               M230730G611047000012  2011110301541BPAJOSE PEREIRA DA SILVA         19640416I99    010
6831587201111               22360520111104003010302060022               M230730G636059000010  2011110302047BPAJOSE ANTONIO FILHO            19520510I03    010
6831587201111               22360520111104004010302060022               M230730G636021000010  2011110302048BPAISRAEL SALES NUNES            19900127I04    010
6831587201111               22360520111104005010302060022               F230730G618059000010  2011110302049BPAMARIA ANA ARAUJO              19520904I99    010
6831587201111               22360520111104006010302060022               F230730G618021000010  2011110302050BPACARLOS RAMON MOREIRA NASCIMENT19901018I99    010
6831587201111               22360520111104007010302060022               F230730G618049000010  2011110302051BPAMARIA AURI DOS SANTOS SILVA   19620505I99    010
6831587201111               22360520111104008010302060022               F230730G618046000010  2011110302052BPAANTONIA LEDA GONCALVES        19651221I99    010
6831587201111               22360520111104009010302060022               F230730G636057000010  2011110302053BPAMARIA DO SOCORRO PEREIRA      19540120I99    010
6831587201111               22360520111104010010302060022               F230730G636021000010  2011110302054BPAIRACILDA FAGUNDES VIEIRA      19901231I04    010
6831587201111               22360520111104011010302060022               F230730G618003000010  2011110302055BPAMARIA FERNANDA FREIRE DA SILVA20081219I99    010
6831587201111               22360520111104012010302060022               F230730G618029000008  2011110302056BPAANDREIA PAULO RIBEIRO         19820711I99    010
6831587201111               22360520111104013010302060022               M230730G618070000010  2011110302057BPAFRANCISCO ALVES DE FIGUEIREDO 19410427I99    010
6831587201111               22360520111104014010302060022               M230730G618059000010  2011110302058BPAJOSE ANTONIO FILHO            19520510I03    010
6831587201111               22360520111104015010302060022               M230730G636023000008  2011110302059BPAFRANCISCO STEFANIO BARRETO    19881229I99    010
6831587201111               22360520111104016010302060022               M230730G636047000008  2011110302060BPAJOSE PEREIRA DA SILVA         19640416I99    010
6831587201111               22360520111104017010302060022               M230730G636040000010  2011110302061BPACICERO DOS SANTOS VIEIRA      19711005I04    010
6831587201111               22360520111104018010302060022               F230730G618064000010  2011110302062BPAJOSEFA VIOLETA MORAIS DO NASCI19480105I99    010
6831587201111               22360520111104019010302060022               M230730G636050000008  2011110302063BPAJOSE AFONSO DA SILVA          19610524I04    010
6831587201111               22360520111104020010302060022               F230730G636045000010  2011110302064BPAMARIA DAS DORES BELEM GOMES   19660624I99    010
6831587201111               22360520111104021010302060022               F230730G636053000008  2011110302065BPAMARIA LUCIANO DA SILVA MOREIRA19580505I99    010
6831587201111               22360520111104022010302060022               F230730G636030000020  2011110302066BPAANGELICA MARIA PINHEIRO DA SIL19811023I04    010
6831587201111               22360520111109023010302060022               F230730G636054000010  2011110400784BPAMARIA SILVA RIBEIRO NASCIMENTO19571212I99    010
6831587201111               22360520111110024010302060022               M230730G618023000012  2011110700784BPAFRANCISCO STEFANIO BARRETO    19881229I99    010
6831587201111               22360520111111025010302060022               F230730G636053000012  2011110701024BPAMARIA LUCIANO DA SILVA MOREIRA19580505I99    010
6831587201111               22360520111110026010302060022               F230730G636046000010  2011110701120BPAANTONIA LEDA GONCALVES        19651221I99    010
6831587201111               22360520111110027010302060022164067929800000F230730G618058000010  2011110800505BPAMARIA ILZA MARTINS            19530604I99    010
6831587201111               22360520111114028010302060022               M230730G618062000010  2011111100293BPALOURENCO MANOEL SEBASTIAO     19490614I99    010
6831587201111               22360520111114029010302060022               M230730G636059000010  2011111100295BPAJOSE ANTONIO FILHO            19520510I03    010
6831587201111               22360520111114030010302060022               M230730G618041000010  2011111100325BPAMAURO PIRES DE SOUSA          19700130I99    010
6831587201111               22360520111114031010302060022               F230730G618072000010  2011111400346BPAMARIA OLIVEIRA DA SILVA       19390401I99    010
6831587201111               22360520111118032010302060022               F230730G618030000010  2011111400627BPANATALIA SANTOS DA SILVA       19810726I99    010
6831587201111               22360520111114033010302060022               F230730G636057000010  2011111400663BPAMARIA GEANE DA CONCEICAO SILVA19541005I99    010
6831587201111               22360520111117034010302060022               M230730G636025000010  2011111600027BPAADAUTO TELES GOMES SILVA      19861012I04    010
6831587201111               22360520111117035010302060022               F230730G636063000010  2011111600159BPAJOSEFA MARIA DA SILVA OLIVEIRA19481015I99    010
6831587201111               22360520111117036010302060022               F230730G636069000010  2011111600162BPAMARIA MELO SANTANA            19420131I99    010
6831587201111               22360520111117037010302060022               F230730G636057000010  2011111600167BPAMARIA DO SOCORRO PEREIRA      19540120I99    010
6831587201111               22360520111123038010302060022               F230730G618049000010  2011111600321BPAMARIA AURI DOS SANTOS SILVA   19620505I99    010
6831587201111               22360520111118039010302060022               F230730G636064000010  2011111700423BPAJOSEFA VIOLETA MORAIS DO NASCI19480105I99    010
6831587201111               22360520111118040010302060022               F230730G618021000010  2011111700572BPAIRACILDA FAGUNDES VIEIRA      19901231I04    010
6831587201111               22360520111118041010302060022               M230730G636026000010  2011111700575BPACICERO LUCIANO MARTINS ARAUJO 19850430I99    010
6831587201111               22360520111118042010302060022               F230730G636013000012  2011111700738BPAJULIANA DE LIMA SILVA         19980202I04    010
6831587201111               22360520111121043010302060022               F230730G611066000010  2011111700928BPACICERO LAURENTINO NERI        19450214I99    010
6831587201111               22360520111118044010302060022               M230730G636040000010  2011111800431BPACICERO DOS SANTOS VIEIRA      19711005I99    010
6831587201111               22360520111121045010302060022               F230730G611045000010  2011112100674BPAMARIA DAS DORES BELEM GOMES   19660624I99    010
6831587201111               22360520111122046010302060022               F230730G618024000010  2011112200160BPAMARIA ELANIA R.DA SILVA       19870407I99    010
6831587201111               22360520111125047010302060022               F230730G636032000010  2011112300251BPACICERA AGOSTINHO LOBO         19791204I99    010
6831587201111               22360520111123048010302060022               M230730G611028000010  2011112300705BPARONALDO PEREIRA DA SILVA      19830702I04    010
6831587201111               22360520111129049010302060022               F230730G636038000010  2011112301011BPAVALMISIA FERREIRA SILVA       19730202I99    010
6831587201111               22360520111128050010302060022               F230730G618003000010  2011112400065BPAMARIA FERNANDA FREIRE DA SILVA20081219I99    010
6831587201111               22360520111129051010302060022               F230730G636059000010  2011112400107BPAMARIA ANA ARAUJO              19520904I99    010
6831587201111               22360520111129052010302060022               M230730G618021000010  2011112400265BPACARLOS RAMON MOREIRA DO NASCIM19901018I01    010
6831587201111               22360520111128053010302060022               M230730G636070000010  2011112400298BPAFRANCISCO ALVES DE FIGUEIREDO 19410427I99    010
6831587201111               22360520111128054010302060022               F230730G636069000010  2011112400846BPAMARIA FERREIRA DE OLIVEIRA    19420728I99    010
6831587201111               22360520111130055010302060022               F230730G636029000012  2011112800381BPAANDREIA PAULO RIBEIRO         19820711I99    010
